{
  "contractName": "Bet",
  "abi": [
    {
      "constant": true,
      "inputs": [],
      "name": "user1Balance",
      "outputs": [
        {
          "name": "",
          "type": "uint256"
        }
      ],
      "payable": false,
      "stateMutability": "view",
      "type": "function",
      "signature": "0x0bb4a4ad"
    },
    {
      "constant": true,
      "inputs": [
        {
          "name": "",
          "type": "address"
        }
      ],
      "name": "balanceOf",
      "outputs": [
        {
          "name": "",
          "type": "uint256"
        }
      ],
      "payable": false,
      "stateMutability": "view",
      "type": "function",
      "signature": "0x70a08231"
    },
    {
      "constant": true,
      "inputs": [],
      "name": "sum2",
      "outputs": [
        {
          "name": "",
          "type": "int256"
        }
      ],
      "payable": false,
      "stateMutability": "view",
      "type": "function",
      "signature": "0x848906c3"
    },
    {
      "constant": true,
      "inputs": [],
      "name": "contractBalance",
      "outputs": [
        {
          "name": "",
          "type": "uint256"
        }
      ],
      "payable": false,
      "stateMutability": "view",
      "type": "function",
      "signature": "0x8b7afe2e"
    },
    {
      "constant": true,
      "inputs": [],
      "name": "sum1",
      "outputs": [
        {
          "name": "",
          "type": "int256"
        }
      ],
      "payable": false,
      "stateMutability": "view",
      "type": "function",
      "signature": "0x9e5f5044"
    },
    {
      "constant": true,
      "inputs": [],
      "name": "user2Balance",
      "outputs": [
        {
          "name": "",
          "type": "uint256"
        }
      ],
      "payable": false,
      "stateMutability": "view",
      "type": "function",
      "signature": "0xc2d3aee5"
    },
    {
      "inputs": [],
      "payable": false,
      "stateMutability": "nonpayable",
      "type": "constructor",
      "signature": "constructor"
    },
    {
      "constant": false,
      "inputs": [
        {
          "name": "usr1",
          "type": "address"
        },
        {
          "name": "usr2",
          "type": "address"
        },
        {
          "name": "newSerialNums1",
          "type": "int256[]"
        },
        {
          "name": "newSerialNums2",
          "type": "int256[]"
        },
        {
          "name": "metrics1",
          "type": "int256[5][]"
        },
        {
          "name": "metrics2",
          "type": "int256[5][]"
        }
      ],
      "name": "setup",
      "outputs": [
        {
          "name": "",
          "type": "bool"
        }
      ],
      "payable": false,
      "stateMutability": "nonpayable",
      "type": "function",
      "signature": "0xa0f00628"
    },
    {
      "constant": false,
      "inputs": [],
      "name": "check",
      "outputs": [
        {
          "name": "",
          "type": "address"
        }
      ],
      "payable": false,
      "stateMutability": "nonpayable",
      "type": "function",
      "signature": "0x919840ad"
    },
    {
      "constant": false,
      "inputs": [],
      "name": "initialUpdate",
      "outputs": [],
      "payable": false,
      "stateMutability": "nonpayable",
      "type": "function",
      "signature": "0x15a2b528"
    },
    {
      "constant": false,
      "inputs": [
        {
          "name": "sNums1",
          "type": "int256"
        },
        {
          "name": "sNums2",
          "type": "int256"
        },
        {
          "name": "newValues1",
          "type": "int256[]"
        },
        {
          "name": "newValues2",
          "type": "int256[]"
        }
      ],
      "name": "addValues",
      "outputs": [],
      "payable": false,
      "stateMutability": "nonpayable",
      "type": "function",
      "signature": "0x15fd58b6"
    },
    {
      "constant": false,
      "inputs": [
        {
          "name": "newValues1",
          "type": "int256[5][]"
        },
        {
          "name": "newValues2",
          "type": "int256[5][]"
        }
      ],
      "name": "calculateBestPlayer",
      "outputs": [
        {
          "name": "",
          "type": "address"
        }
      ],
      "payable": false,
      "stateMutability": "nonpayable",
      "type": "function",
      "signature": "0xd3af8116"
    }
  ],
  "bytecode": "0x608060405260a060405190810160405280600460ff168152602001600360ff168152602001600460ff168152602001600360ff168152602001600160ff168152506009906005620000529291906200013d565b503480156200006057600080fd5b506000600160006101000a81548173ffffffffffffffffffffffffffffffffffffffff021916908373ffffffffffffffffffffffffffffffffffffffff1602179055506000600360006101000a81548173ffffffffffffffffffffffffffffffffffffffff021916908373ffffffffffffffffffffffffffffffffffffffff16021790555060006004819055506000600560006101000a81548173ffffffffffffffffffffffffffffffffffffffff021916908373ffffffffffffffffffffffffffffffffffffffff1602179055506000600681905550620001af565b826005810192821562000174579160200282015b8281111562000173578251829060ff1690559160200191906001019062000151565b5b50905062000183919062000187565b5090565b620001ac91905b80821115620001a85760008160009055506001016200018e565b5090565b90565b61224680620001bf6000396000f3fe6080604052600436106100af576000357c0100000000000000000000000000000000000000000000000000000000900463ffffffff1680630bb4a4ad146100b457806315a2b528146100df57806315fd58b6146100f657806370a0823114610263578063848906c3146102c85780638b7afe2e146102f3578063919840ad1461031e5780639e5f504414610375578063a0f00628146103a0578063c2d3aee5146106f1578063d3af81161461071c575b600080fd5b3480156100c057600080fd5b506100c961092d565b6040518082815260200191505060405180910390f35b3480156100eb57600080fd5b506100f4610933565b005b34801561010257600080fd5b506102616004803603608081101561011957600080fd5b8101908080359060200190929190803590602001909291908035906020019064010000000081111561014a57600080fd5b82018360208201111561015c57600080fd5b8035906020019184602083028401116401000000008311171561017e57600080fd5b919080806020026020016040519081016040528093929190818152602001838360200280828437600081840152601f19601f820116905080830192505050505050509192919290803590602001906401000000008111156101de57600080fd5b8201836020820111156101f057600080fd5b8035906020019184602083028401116401000000008311171561021257600080fd5b919080806020026020016040519081016040528093929190818152602001838360200280828437600081840152601f19601f820116905080830192505050505050509192919290505050610adc565b005b34801561026f57600080fd5b506102b26004803603602081101561028657600080fd5b81019080803573ffffffffffffffffffffffffffffffffffffffff169060200190929190505050610de2565b6040518082815260200191505060405180910390f35b3480156102d457600080fd5b506102dd610dfa565b6040518082815260200191505060405180910390f35b3480156102ff57600080fd5b50610308610e00565b6040518082815260200191505060405180910390f35b34801561032a57600080fd5b50610333610e06565b604051808273ffffffffffffffffffffffffffffffffffffffff1673ffffffffffffffffffffffffffffffffffffffff16815260200191505060405180910390f35b34801561038157600080fd5b5061038a610e88565b6040518082815260200191505060405180910390f35b3480156103ac57600080fd5b506106d7600480360360c08110156103c357600080fd5b81019080803573ffffffffffffffffffffffffffffffffffffffff169060200190929190803573ffffffffffffffffffffffffffffffffffffffff1690602001909291908035906020019064010000000081111561042057600080fd5b82018360208201111561043257600080fd5b8035906020019184602083028401116401000000008311171561045457600080fd5b919080806020026020016040519081016040528093929190818152602001838360200280828437600081840152601f19601f820116905080830192505050505050509192919290803590602001906401000000008111156104b457600080fd5b8201836020820111156104c657600080fd5b803590602001918460208302840111640100000000831117156104e857600080fd5b919080806020026020016040519081016040528093929190818152602001838360200280828437600081840152601f19601f8201169050808301925050505050505091929192908035906020019064010000000081111561054857600080fd5b82018360208201111561055a57600080fd5b803590602001918460a083028401116401000000008311171561057c57600080fd5b9190808060200260200160405190810160405280939291908181526020016000905b828210156105f557848483905060a002016005806020026040519081016040528092919082600560200280828437600081840152601f19601f8201169050808301925050505050508152602001906001019061059e565b505050505091929192908035906020019064010000000081111561061857600080fd5b82018360208201111561062a57600080fd5b803590602001918460a083028401116401000000008311171561064c57600080fd5b9190808060200260200160405190810160405280939291908181526020016000905b828210156106c557848483905060a002016005806020026040519081016040528092919082600560200280828437600081840152601f19601f8201169050808301925050505050508152602001906001019061066e565b50505050509192919290505050610e8e565b604051808215151515815260200191505060405180910390f35b3480156106fd57600080fd5b506107066111b3565b6040518082815260200191505060405180910390f35b34801561072857600080fd5b506108eb6004803603604081101561073f57600080fd5b810190808035906020019064010000000081111561075c57600080fd5b82018360208201111561076e57600080fd5b803590602001918460a083028401116401000000008311171561079057600080fd5b9190808060200260200160405190810160405280939291908181526020016000905b8282101561080957848483905060a002016005806020026040519081016040528092919082600560200280828437600081840152601f19601f820116905080830192505050505050815260200190600101906107b2565b505050505091929192908035906020019064010000000081111561082c57600080fd5b82018360208201111561083e57600080fd5b803590602001918460a083028401116401000000008311171561086057600080fd5b9190808060200260200160405190810160405280939291908181526020016000905b828210156108d957848483905060a002016005806020026040519081016040528092919082600560200280828437600081840152601f19601f82011690508083019250505050505081526020019060010190610882565b505050505091929192905050506111b9565b604051808273ffffffffffffffffffffffffffffffffffffffff1673ffffffffffffffffffffffffffffffffffffffff16815260200191505060405180910390f35b60045481565b6002674563918244f4000002600260008282540192505081905550674563918244f40000600460008282540392505081905550674563918244f40000600660008282540392505081905550600254600080600160009054906101000a900473ffffffffffffffffffffffffffffffffffffffff1673ffffffffffffffffffffffffffffffffffffffff1673ffffffffffffffffffffffffffffffffffffffff16815260200190815260200160002060008282540192505081905550674563918244f40000600080600360009054906101000a900473ffffffffffffffffffffffffffffffffffffffff1673ffffffffffffffffffffffffffffffffffffffff1673ffffffffffffffffffffffffffffffffffffffff16815260200190815260200160002060008282540392505081905550674563918244f40000600080600560009054906101000a900473ffffffffffffffffffffffffffffffffffffffff1673ffffffffffffffffffffffffffffffffffffffff1673ffffffffffffffffffffffffffffffffffffffff16815260200190815260200160002060008282540392505081905550565b60078490806001815401808255809150509060018203906000526020600020016000909192909190915055506008839080600181540180825580915050906001820390600052602060002001600090919290919091505550600e826000815181101515610b4557fe5b906020019060200201519080600181540180825580915050906001820390600052602060002001600090919290919091505550600f826001815181101515610b8957fe5b9060200190602002015190806001815401808255809150509060018203906000526020600020016000909192909190915055506010826002815181101515610bcd57fe5b9060200190602002015190806001815401808255809150509060018203906000526020600020016000909192909190915055506011826003815181101515610c1157fe5b9060200190602002015190806001815401808255809150509060018203906000526020600020016000909192909190915055506012826004815181101515610c5557fe5b9060200190602002015190806001815401808255809150509060018203906000526020600020016000909192909190915055506013816000815181101515610c9957fe5b9060200190602002015190806001815401808255809150509060018203906000526020600020016000909192909190915055506014816001815181101515610cdd57fe5b9060200190602002015190806001815401808255809150509060018203906000526020600020016000909192909190915055506015816002815181101515610d2157fe5b9060200190602002015190806001815401808255809150509060018203906000526020600020016000909192909190915055506016816003815181101515610d6557fe5b9060200190602002015190806001815401808255809150509060018203906000526020600020016000909192909190915055506017816004815181101515610da957fe5b90602001906020020151908060018154018082558091505090600182039060005260206000200160009091929091909150555050505050565b60006020528060005260406000206000915090505481565b60235481565b60025481565b6000674563918244f400006004541015610e4457600360009054906101000a900473ffffffffffffffffffffffffffffffffffffffff169050610e85565b674563918244f400006006541015610e8057600560009054906101000a900473ffffffffffffffffffffffffffffffffffffffff169050610e85565b600090505b90565b60225481565b600030600160006101000a81548173ffffffffffffffffffffffffffffffffffffffff021916908373ffffffffffffffffffffffffffffffffffffffff16021790555086600360006101000a81548173ffffffffffffffffffffffffffffffffffffffff021916908373ffffffffffffffffffffffffffffffffffffffff160217905550600360009054906101000a900473ffffffffffffffffffffffffffffffffffffffff1673ffffffffffffffffffffffffffffffffffffffff163160048190555085600560006101000a81548173ffffffffffffffffffffffffffffffffffffffff021916908373ffffffffffffffffffffffffffffffffffffffff160217905550600560009054906101000a900473ffffffffffffffffffffffffffffffffffffffff1673ffffffffffffffffffffffffffffffffffffffff16316006819055508460079080519060200190610fe992919061206e565b50836008908051906020019061100092919061206e565b5082600081518110151561101057fe5b90602001906020020151600e90600561102a9291906120bb565b5082600181518110151561103a57fe5b90602001906020020151600f9060056110549291906120bb565b5082600281518110151561106457fe5b90602001906020020151601090600561107e9291906120bb565b5082600381518110151561108e57fe5b9060200190602002015160119060056110a89291906120bb565b508260048151811015156110b857fe5b9060200190602002015160129060056110d29291906120bb565b508160008151811015156110e257fe5b9060200190602002015160139060056110fc9291906120bb565b5081600181518110151561110c57fe5b9060200190602002015160149060056111269291906120bb565b5081600281518110151561113657fe5b9060200190602002015160159060056111509291906120bb565b5081600381518110151561116057fe5b90602001906020020151601690600561117a9291906120bb565b5081600481518110151561118a57fe5b9060200190602002015160179060056111a49291906120bb565b50600190509695505050505050565b60065481565b600060a060405190810160405280611239600e80548060200260200160405190810160405280929190818152602001828054801561121657602002820191906000526020600020905b815481526020019060010190808311611202575b505050505086600081518110151561122a57fe5b906020019060200201516118a0565b81526020016112b0600f80548060200260200160405190810160405280929190818152602001828054801561128d57602002820191906000526020600020905b815481526020019060010190808311611279575b50505050508660018151811015156112a157fe5b906020019060200201516118a0565b8152602001611327601080548060200260200160405190810160405280929190818152602001828054801561130457602002820191906000526020600020905b8154815260200190600101908083116112f0575b505050505086600281518110151561131857fe5b906020019060200201516118a0565b815260200161139e601180548060200260200160405190810160405280929190818152602001828054801561137b57602002820191906000526020600020905b815481526020019060010190808311611367575b505050505086600381518110151561138f57fe5b906020019060200201516118a0565b815260200161141560128054806020026020016040519081016040528092919081815260200182805480156113f257602002820191906000526020600020905b8154815260200190600101908083116113de575b505050505086600481518110151561140657fe5b906020019060200201516118a0565b8152506018906005611428929190612108565b5060a0604051908101604052806114a7601380548060200260200160405190810160405280929190818152602001828054801561148457602002820191906000526020600020905b815481526020019060010190808311611470575b505050505085600081518110151561149857fe5b906020019060200201516118a0565b815260200161151e60148054806020026020016040519081016040528092919081815260200182805480156114fb57602002820191906000526020600020905b8154815260200190600101908083116114e7575b505050505085600181518110151561150f57fe5b906020019060200201516118a0565b8152602001611595601580548060200260200160405190810160405280929190818152602001828054801561157257602002820191906000526020600020905b81548152602001906001019080831161155e575b505050505085600281518110151561158657fe5b906020019060200201516118a0565b815260200161160c60168054806020026020016040519081016040528092919081815260200182805480156115e957602002820191906000526020600020905b8154815260200190600101908083116115d5575b50505050508560038151811015156115fd57fe5b906020019060200201516118a0565b8152602001611683601780548060200260200160405190810160405280929190818152602001828054801561166057602002820191906000526020600020905b81548152602001906001019080831161164c575b505050505085600481518110151561167457fe5b906020019060200201516118a0565b815250601d906005611696929190612108565b5061169f611945565b7fffffffffffffffffffffffffffffffffffffffffffffffffffffffffffffffff6022819055507fffffffffffffffffffffffffffffffffffffffffffffffffffffffffffffffff6023819055506001602260008282540192505081905550600160236000828254019250508190555060008090505b60058110156118175761178560188260058110151561173057fe5b0180548060200260200160405190810160405280929190818152602001828054801561177b57602002820191906000526020600020905b815481526020019060010190808311611767575b5050505050611f26565b6022600082825401925050819055506117fb601d826005811015156117a657fe5b018054806020026020016040519081016040528092919081815260200182805480156117f157602002820191906000526020600020905b8154815260200190600101908083116117dd575b5050505050611f26565b6023600082825401925050819055508080600101915050611715565b5060235460225413156118565761184f600360009054906101000a900473ffffffffffffffffffffffffffffffffffffffff16611f6f565b905061189a565b6023546022541315156118955761188e600560009054906101000a900473ffffffffffffffffffffffffffffffffffffffff16611f6f565b905061189a565b600090505b92915050565b60608083516040519080825280602002602001820160405280156118d35781602001602082028038833980820191505090505b50905060008090505b845181101561193a5784818151811015156118f357fe5b90602001906020020151848260058110151561190b57fe5b602002015103828281518110151561191f57fe5b906020019060200201818152505080806001019150506118dc565b508091505092915050565b60006203d090905060006188b8905060008090505b6018600060058110151561196a57fe5b0180549050811015611a6f5760646009600060058110151561198857fe5b0154846018600060058110151561199b57fe5b01848154811015156119a957fe5b90600052602060002001548115156119bd57fe5b050202601860006005811015156119d057fe5b01828154811015156119de57fe5b90600052602060002001819055506064600960006005811015156119fe57fe5b015484601d6000600581101515611a1157fe5b0184815481101515611a1f57fe5b9060005260206000200154811515611a3357fe5b050202601d6000600581101515611a4657fe5b0182815481101515611a5457fe5b9060005260206000200181905550808060010191505061195a565b5060008090505b60186001600581101515611a8657fe5b0180549050811015611b6f5760096001600581101515611aa257fe5b015460186001600581101515611ab457fe5b0182815481101515611ac257fe5b90600052602060002001540260186001600581101515611ade57fe5b0182815481101515611aec57fe5b906000526020600020018190555060096001600581101515611b0a57fe5b0154601d6001600581101515611b1c57fe5b0182815481101515611b2a57fe5b906000526020600020015402601d6001600581101515611b4657fe5b0182815481101515611b5457fe5b90600052602060002001819055508080600101915050611a76565b5060008090505b60186002600581101515611b8657fe5b0180549050811015611ccf57600a60096002600581101515611ba457fe5b01548360186002600581101515611bb757fe5b0184815481101515611bc557fe5b9060005260206000200154811515611bd957fe5b057fffffffffffffffffffffffffffffffffffffffffffffffffffffffffffffffff02020260186002600581101515611c0e57fe5b0182815481101515611c1c57fe5b9060005260206000200181905550600a60096002600581101515611c3c57fe5b015483601d6002600581101515611c4f57fe5b0184815481101515611c5d57fe5b9060005260206000200154811515611c7157fe5b057fffffffffffffffffffffffffffffffffffffffffffffffffffffffffffffffff020202601d6002600581101515611ca657fe5b0182815481101515611cb457fe5b90600052602060002001819055508080600101915050611b76565b5060008090505b60186003600581101515611ce657fe5b0180549050811015611f2157614e20601182815481101515611d0457fe5b906000526020600020015460186003600581101515611d1f57fe5b0183815481101515611d2d57fe5b9060005260206000200154011415611d7257600060186003600581101515611d5157fe5b0182815481101515611d5f57fe5b9060005260206000200181905550611e03565b612710601182815481101515611d8457fe5b906000526020600020015460186003600581101515611d9f57fe5b0183815481101515611dad57fe5b9060005260206000200154011415611e025760096003600581101515611dcf57fe5b01546127100260186003600581101515611de557fe5b0182815481101515611df357fe5b90600052602060002001819055505b5b614e20601682815481101515611e1557fe5b9060005260206000200154601d6003600581101515611e3057fe5b0183815481101515611e3e57fe5b9060005260206000200154011415611e83576000601d6003600581101515611e6257fe5b0182815481101515611e7057fe5b9060005260206000200181905550611f14565b612710601682815481101515611e9557fe5b9060005260206000200154601d6003600581101515611eb057fe5b0183815481101515611ebe57fe5b9060005260206000200154011415611f135760096003600581101515611ee057fe5b015461271002601d6003600581101515611ef657fe5b0182815481101515611f0457fe5b90600052602060002001819055505b5b8080600101915050611cd6565b505050565b6000806000905060008090505b8351811015611f65578381815181101515611f4a57fe5b90602001906020020151820191508080600101915050611f33565b5080915050919050565b6000600360009054906101000a900473ffffffffffffffffffffffffffffffffffffffff1673ffffffffffffffffffffffffffffffffffffffff168273ffffffffffffffffffffffffffffffffffffffff161415611fe6576002546004600082825401925050819055506000600281905550612065565b600560009054906101000a900473ffffffffffffffffffffffffffffffffffffffff1673ffffffffffffffffffffffffffffffffffffffff168273ffffffffffffffffffffffffffffffffffffffff16141561205b576002546006600082825401925050819055506000600281905550612064565b60009050612069565b5b8190505b919050565b8280548282559060005260206000209081019282156120aa579160200282015b828111156120a957825182559160200191906001019061208e565b5b5090506120b7919061215b565b5090565b8280548282559060005260206000209081019282156120f7579160200282015b828111156120f65782518255916020019190600101906120db565b5b509050612104919061215b565b5090565b826005810192821561214a579160200282015b82811115612149578251829080519060200190612139929190612180565b509160200191906001019061211b565b5b50905061215791906121cd565b5090565b61217d91905b80821115612179576000816000905550600101612161565b5090565b90565b8280548282559060005260206000209081019282156121bc579160200282015b828111156121bb5782518255916020019190600101906121a0565b5b5090506121c9919061215b565b5090565b6121f691905b808211156121f257600081816121e991906121f9565b506001016121d3565b5090565b90565b5080546000825590600052602060002090810190612217919061215b565b5056fea165627a7a723058200161729acb6a2bb199785d443b007fb1d51b4ab6a978b2e583009f75bd52d1f30029",
  "source": "pragma solidity ^0.5.0;\n\ncontract Bet {\n    mapping (address => uint) public balanceOf;\n    \n    uint constant betAmount = 5 ether; // The bet that each person will make. This is $10 in wei\n    \n    \n    address contractAddress; // The address of the user that stores the gwei between the transaction\n    uint public contractBalance; // The balance of the contract\n    address user1; // The address of the first user\n    uint public user1Balance; // The balance of the first user\n    address user2; // The address of the second user\n    uint public user2Balance; // The balance of the second user\n    int[] serialNums1; // The card's serial number for player 1\n    int[] serialNums2; // The card's serial number for player 1\n    \n    \n    \n    // Metric storage----------------------------------------\n    \n    // serial num (6724473)\n    // rare/common/legendary (0.5/0/1)\n    // circulation count (444)\n    // set (1/2)\n    // certificed baller shot (1/0)\n    int[5] weights = [4, 3, 4, 3, 1];\n    int[] values1;\n    int[] RCLs1;\n    int[] circulationCts1; \n    int[] sets1;\n    int[] CBSs1;\n    \n    int[] values2;\n    int[] RCLs2;\n    int[] circulationCts2; \n    int[] sets2;\n    int[] CBSs2;\n    \n    \n    int[][5] differences1;\n    int[][5] differences2;\n    \n    \n    \n    // Set each variable to a default values\n    constructor() public {\n        contractAddress = 0x0000000000000000000000000000000000000000;\n        user1 = 0x0000000000000000000000000000000000000000;\n        user1Balance =  0;\n        user2 = 0x0000000000000000000000000000000000000000;\n        user2Balance = 0;\n    }\n    \n    \n    // Set the addresses and player values for each user and create the contract\n    function setup(address usr1, address usr2, int[] memory newSerialNums1, int[] memory newSerialNums2, int[5][] memory metrics1, int[5][] memory metrics2) public returns(bool) {\n        // Store the variables\n        contractAddress = address(this);\n        user1 = usr1;\n        user1Balance = user1.balance;\n        user2 = usr2;\n        user2Balance = user2.balance;\n        serialNums1 = newSerialNums1;\n        serialNums2 = newSerialNums2;\n        \n        // Store each metric for each player for user 1\n        values1 = metrics1[0];\n        RCLs1 = metrics1[1];\n        circulationCts1 = metrics1[2];\n        sets1 = metrics1[3];\n        CBSs1 = metrics1[4];\n        \n        // Store each metrics for each player for user 2\n        values2 = metrics2[0];\n        RCLs2 = metrics2[1];\n        circulationCts2 = metrics2[2];\n        sets2 = metrics2[3];\n        CBSs2 = metrics2[4];\n        \n        return true;\n    }\n    \n    \n    \n    // Checks if the balances of each user meets the required betAmount. It returns a null\n    // address if both users meet the requirement.\n    function check() public returns(address) {\n        // If user1 doesn't meet the bet amount, return the first user\n        if (user1Balance < betAmount) return user1;\n        \n        // If user2 doesn't meet the bet amount, return the second user\n        if (user2Balance < betAmount) return user2;\n        \n        // If both users meet the requirement, return a null address\n        return 0x0000000000000000000000000000000000000000;\n    }\n    \n    \n    \n    // Deducts the betAmount from each user and adds the bet amount to the contract user\n    function initialUpdate() public {\n        contractBalance += betAmount*2;\n        user1Balance -= betAmount;\n        user2Balance -= betAmount;\n        balanceOf[contractAddress] += contractBalance;\n        balanceOf[user1] -= betAmount;\n        balanceOf[user2] -= betAmount;\n    }\n    \n    \n    // Adds a new value to each valuearray\n    function addValues(int sNums1, int sNums2, int[] memory newValues1, int[] memory newValues2) public {\n        serialNums1.push(sNums1);\n        serialNums2.push(sNums2);\n        \n        // Store each metric for each player for user 1\n        values1.push(newValues1[0]);\n        RCLs1.push(newValues1[1]);\n        circulationCts1.push(newValues1[2]);\n        sets1.push(newValues1[3]);\n        CBSs1.push(newValues1[4]);\n        \n        // Store each metrics for each player for user 2\n        values2.push(newValues2[0]);\n        RCLs2.push(newValues2[1]);\n        circulationCts2.push(newValues2[2]);\n        sets2.push(newValues2[3]);\n        CBSs2.push(newValues2[4]);\n    }\n    \n    \n    // Gets the sum of a given array\n    function getSum(int[] memory someArray) private returns(int) {\n        int sum = 0;\n        \n        for(uint i = 0; i < someArray.length; i++)\n            sum += someArray[i];\n        \n        return sum;\n    }\n    \n    \n    \n    // Gets the difference of each array value given two arrays and returns an \n    // array of the difference in each index in teh array\n    function getDifference(int[] memory initialValues, int[5] memory finalValues) private returns(int[] memory) {\n        // Holds the difference of each index in the array\n        int[] memory differences = new int[](initialValues.length);\n        \n        for (uint i = 0; i < initialValues.length; i++) {\n            differences[i] = (finalValues[i] - initialValues[i]);\n        }\n        \n        return differences;\n    }\n    \n    \n    \n    // Transfers the money to a sinlge address\n    function transfer(address winner) private returns(address) {\n        // If the winner is user1, add the balance to player1\n        if (winner == user1) {\n            user1Balance += contractBalance;\n            contractBalance = 0;\n        }\n        // If the winner is user2, add the balance to player2\n        else if (winner == user2) {\n            user2Balance += contractBalance;\n            contractBalance = 0;\n        }\n        // If the winner is not player1 or player2, return false\n        else {\n            return 0x0000000000000000000000000000000000000000;\n        }\n        \n        return winner;\n    }\n    \n    \n    /*\n    // Normalizing each value in the metrics arrays\n    function normalizeMultiply() private {\n        // Create the constants for each multiplier\n        uint highestVal = 250000 * 10000;\n        uint highestCirculationCts = 35000 * 5 * 10000;\n        \n        // Itereate through each player\n        for (uint i = 0; i < serialNums1.length; i++) {\n            // Serial numbers do not change, they stay the same\n            \n            // Normalize and multiply the player values\n            values1[i] = int((1-(uint(values1[i])/highestVal))*uint(weights[0]));\n            values2[i] = int((1-(uint(values2[i])/highestVal))*uint(weights[0]));\n            \n            // Normalize and multiply the RCL values\n            RCLs1[i] = int((uint(RCLs1[i]))*uint(weights[1]));\n            RCLs2[i] = int((uint(RCLs2[i]))*uint(weights[1]));\n            \n            // Normalize and multiply the circulation count values\n            circulationCts1[i] = int((1-(uint(circulationCts1[i])/highestCirculationCts))*uint(weights[2]));\n            circulationCts2[i] = int((1-(uint(circulationCts2[i])/highestCirculationCts))*uint(weights[2]));\n            \n            \n            // Normalize and multiply the set values\n            if (sets1[i] == 2) {\n                sets1[i] = 0;\n            }\n            else {\n                sets1[i] = 1 * weights[3];\n            }\n            \n            if (sets2[i] == 2) {\n                sets2[i] = 0;\n            }\n            else {\n                sets2[i] = 1 * weights[3];\n            }\n            \n            // CBS is already normalized and is multiplied by 1, so it doesn't need to change\n        }\n    }\n    */\n    \n    \n    // Normalizing each value in the metrics arrays\n    function normalizeMultiply() private {\n        // Create the constants for each multiplier\n        uint highestVal = 250000;\n        uint highestCirculationCts = 35000;\n        \n        \n        \n        // Normalize and multiply the player values\n        for (uint i = 0; i < differences1[0].length; i++) {\n            differences1[0][i] = ((differences1[0][i]/int(highestVal)))*weights[0]*100;\n            differences2[0][i] = ((differences2[0][i]/int(highestVal)))*weights[0]*100;\n        }\n        \n        \n        // Serial numbers do not change, they stay the same\n        \n        \n        // Normalize and multiply the RCL values\n        for (uint i = 0; i < differences1[1].length; i++) {\n            differences1[1][i] = differences1[1][i] * weights[1];\n            differences2[1][i] = differences2[1][i] * weights[1];\n        }\n        \n        \n        // Normalize and multiply the circulation count values\n        for (uint i = 0; i < differences1[2].length; i++) {\n            differences1[2][i] = -1*((differences1[2][i])/int(highestCirculationCts))*weights[2]*10;\n            differences2[2][i] = -1*((differences2[2][i])/int(highestCirculationCts))*weights[2]*10;\n        }\n\n\n        // Normalize and multiply the set values\n        for (uint i = 0; i < differences1[3].length; i++) {\n            if (int(differences1[3][i]+sets1[i]) ==  20000) {\n                differences1[3][i] = 0;\n            }\n            else if (int(differences1[3][i]+sets1[i]) ==  10000) {\n                differences1[3][i] = 10000 * weights[3];\n            }\n            \n            if (int(differences2[3][i]+sets2[i]) ==  20000) {\n                differences2[3][i] = 0;\n            }\n            else if (int(differences2[3][i]+sets2[i]) ==  10000) {\n                differences2[3][i] = 10000 * weights[3];\n            }\n        }\n        // CBS is already normalized and is multiplied by 1, so it doesn't need to change\n    }\n    \n    int public sum1;\n    int public sum2;\n    // Get the new values of each card and return the winner\n    function calculateBestPlayer(int[5][] memory newValues1, int[5][] memory newValues2) public returns(address) {\n        // Get the difference of each players' card value sum\n        \n        // Difference of all data points in values array\n        differences1 = [\n            getDifference(values1, newValues1[0]),\n            getDifference(RCLs1, newValues1[1]),\n            getDifference(circulationCts1, newValues1[2]),\n            getDifference(sets1, newValues1[3]),\n            getDifference(CBSs1, newValues1[4])\n            ];\n        differences2 = [\n            getDifference(values2, newValues2[0]),\n            getDifference(RCLs2, newValues2[1]),\n            getDifference(circulationCts2, newValues2[2]),\n            getDifference(sets2, newValues2[3]),\n            getDifference(CBSs2, newValues2[4])\n            ];\n            \n            \n        // Normalize the data\n        normalizeMultiply();\n        \n        \n        // Get the sum of each difference array-------------------------------\n        sum1 = -1;\n        sum2 = -1;\n        sum1 += 1;\n        sum2 += 1;\n        \n        // Itereate through each player\n        for (uint i = 0; i < differences1.length; i++) {\n            // Get the sum of that player\n            sum1 += getSum(differences1[i]);\n            sum2 += getSum(differences2[i]);\n        }\n        \n        \n        // If sum1 is greater than sum2, player 1 get's the balance\n        if (sum1 > sum2) return transfer(user1);\n        // If sum2 is greater than sum1, player 2 gets the balance\n        else if (sum1 <= sum2) return transfer(user2);\n        // If the sums are equal, both players split the pot\n        else return 0x0000000000000000000000000000000000000000;\n    }\n}",
  "sourcePath": "/Users/alantran/Learning/Hackathons/Dorahacks/Apr 2021/0xA455/src/contracts/Bet.sol",
  "compiler": {
    "name": "solc",
    "version": "0.5.0+commit.1d4f565a.Emscripten.clang"
  },
  "schemaVersion": "3.0.2",
  "updatedAt": "2021-05-16T16:20:37.699Z",
  "devdoc": {
    "methods": {}
  },
  "userdoc": {
    "methods": {}
  }
}