{
  "contractName": "Bet",
  "abi": [
    {
      "constant": true,
      "inputs": [],
      "name": "user1Balance",
      "outputs": [
        {
          "name": "",
          "type": "uint256"
        }
      ],
      "payable": false,
      "stateMutability": "view",
      "type": "function",
      "signature": "0x0bb4a4ad"
    },
    {
      "constant": true,
      "inputs": [],
      "name": "contractBalance",
      "outputs": [
        {
          "name": "",
          "type": "uint256"
        }
      ],
      "payable": false,
      "stateMutability": "view",
      "type": "function",
      "signature": "0x8b7afe2e"
    },
    {
      "constant": true,
      "inputs": [],
      "name": "user2Balance",
      "outputs": [
        {
          "name": "",
          "type": "uint256"
        }
      ],
      "payable": false,
      "stateMutability": "view",
      "type": "function",
      "signature": "0xc2d3aee5"
    },
    {
      "inputs": [],
      "payable": false,
      "stateMutability": "nonpayable",
      "type": "constructor",
      "signature": "constructor"
    },
    {
      "constant": false,
      "inputs": [
        {
          "name": "usr1",
          "type": "address"
        },
        {
          "name": "usr2",
          "type": "address"
        },
        {
          "name": "values1",
          "type": "int256[]"
        },
        {
          "name": "values2",
          "type": "int256[]"
        }
      ],
      "name": "setup",
      "outputs": [],
      "payable": false,
      "stateMutability": "nonpayable",
      "type": "function",
      "signature": "0x128423d8"
    },
    {
      "constant": false,
      "inputs": [],
      "name": "check",
      "outputs": [
        {
          "name": "",
          "type": "address"
        }
      ],
      "payable": false,
      "stateMutability": "nonpayable",
      "type": "function",
      "signature": "0x919840ad"
    },
    {
      "constant": false,
      "inputs": [],
      "name": "initialUpdate",
      "outputs": [],
      "payable": false,
      "stateMutability": "nonpayable",
      "type": "function",
      "signature": "0x15a2b528"
    },
    {
      "constant": false,
      "inputs": [
        {
          "name": "val1",
          "type": "int256"
        },
        {
          "name": "val2",
          "type": "int256"
        }
      ],
      "name": "addValues",
      "outputs": [],
      "payable": false,
      "stateMutability": "nonpayable",
      "type": "function",
      "signature": "0x9f5779d8"
    },
    {
      "constant": false,
      "inputs": [
        {
          "name": "newValues1",
          "type": "int256[]"
        },
        {
          "name": "newValues2",
          "type": "int256[]"
        }
      ],
      "name": "calculateBestPlayer",
      "outputs": [
        {
          "name": "",
          "type": "bool"
        }
      ],
      "payable": false,
      "stateMutability": "nonpayable",
      "type": "function",
      "signature": "0x27cd714d"
    }
  ],
  "bytecode": "0x608060405234801561001057600080fd5b5060008060006101000a81548173ffffffffffffffffffffffffffffffffffffffff021916908373ffffffffffffffffffffffffffffffffffffffff1602179055506000600260006101000a81548173ffffffffffffffffffffffffffffffffffffffff021916908373ffffffffffffffffffffffffffffffffffffffff16021790555060006003819055506000600460006101000a81548173ffffffffffffffffffffffffffffffffffffffff021916908373ffffffffffffffffffffffffffffffffffffffff1602179055506000600581905550602060405190810160405280600060ff16815250600690600161010a929190610135565b50602060405190810160405280600060ff16815250600790600161012f929190610135565b506101ac565b828054828255906000526020600020908101928215610176579160200282015b82811115610175578251829060ff16905591602001919060010190610155565b5b5090506101839190610187565b5090565b6101a991905b808211156101a557600081600090555060010161018d565b5090565b90565b610b55806101bb6000396000f3fe60806040526004361061008e576000357c0100000000000000000000000000000000000000000000000000000000900463ffffffff1680630bb4a4ad14610093578063128423d8146100be57806315a2b5281461025757806327cd714d1461026e5780638b7afe2e146103df578063919840ad1461040a5780639f5779d814610461578063c2d3aee5146104a6575b600080fd5b34801561009f57600080fd5b506100a86104d1565b6040518082815260200191505060405180910390f35b3480156100ca57600080fd5b50610255600480360360808110156100e157600080fd5b81019080803573ffffffffffffffffffffffffffffffffffffffff169060200190929190803573ffffffffffffffffffffffffffffffffffffffff1690602001909291908035906020019064010000000081111561013e57600080fd5b82018360208201111561015057600080fd5b8035906020019184602083028401116401000000008311171561017257600080fd5b919080806020026020016040519081016040528093929190818152602001838360200280828437600081840152601f19601f820116905080830192505050505050509192919290803590602001906401000000008111156101d257600080fd5b8201836020820111156101e457600080fd5b8035906020019184602083028401116401000000008311171561020657600080fd5b919080806020026020016040519081016040528093929190818152602001838360200280828437600081840152601f19601f8201169050808301925050505050505091929192905050506104d7565b005b34801561026357600080fd5b5061026c61064d565b005b34801561027a57600080fd5b506103c56004803603604081101561029157600080fd5b81019080803590602001906401000000008111156102ae57600080fd5b8201836020820111156102c057600080fd5b803590602001918460208302840111640100000000831117156102e257600080fd5b919080806020026020016040519081016040528093929190818152602001838360200280828437600081840152601f19601f8201169050808301925050505050505091929192908035906020019064010000000081111561034257600080fd5b82018360208201111561035457600080fd5b8035906020019184602083028401116401000000008311171561037657600080fd5b919080806020026020016040519081016040528093929190818152602001838360200280828437600081840152601f19601f820116905080830192505050505050509192919290505050610685565b604051808215151515815260200191505060405180910390f35b3480156103eb57600080fd5b506103f46107e8565b6040518082815260200191505060405180910390f35b34801561041657600080fd5b5061041f6107ee565b604051808273ffffffffffffffffffffffffffffffffffffffff1673ffffffffffffffffffffffffffffffffffffffff16815260200191505060405180910390f35b34801561046d57600080fd5b506104a46004803603604081101561048457600080fd5b810190808035906020019092919080359060200190929190505050610862565b005b3480156104b257600080fd5b506104bb6108be565b6040518082815260200191505060405180910390f35b60035481565b306000806101000a81548173ffffffffffffffffffffffffffffffffffffffff021916908373ffffffffffffffffffffffffffffffffffffffff16021790555083600260006101000a81548173ffffffffffffffffffffffffffffffffffffffff021916908373ffffffffffffffffffffffffffffffffffffffff160217905550600260009054906101000a900473ffffffffffffffffffffffffffffffffffffffff1673ffffffffffffffffffffffffffffffffffffffff163160038190555082600460006101000a81548173ffffffffffffffffffffffffffffffffffffffff021916908373ffffffffffffffffffffffffffffffffffffffff160217905550600460009054906101000a900473ffffffffffffffffffffffffffffffffffffffff1673ffffffffffffffffffffffffffffffffffffffff1631600581905550816006908051906020019061062f929190610ab7565b508060079080519060200190610646929190610ab7565b5050505050565b6002600a02600160008282540192505081905550600a600360008282540392505081905550600a600560008282540392505081905550565b600060606106e360068054806020026020016040519081016040528092919081815260200182805480156106d857602002820191906000526020600020905b8154815260200190600101908083116106c4575b5050505050856108c4565b90506060610741600780548060200260200160405190810160405280929190818152602001828054801561073657602002820191906000526020600020905b815481526020019060010190808311610722575b5050505050856108c4565b9050600061074e8361096e565b9050600061075b8361096e565b90508082131561079b57610790600260009054906101000a900473ffffffffffffffffffffffffffffffffffffffff166109b7565b9450505050506107e2565b808212156107d9576107ce600460009054906101000a900473ffffffffffffffffffffffffffffffffffffffff166109b7565b9450505050506107e2565b60009450505050505b92915050565b60015481565b6000600a600354101561082557600260009054906101000a900473ffffffffffffffffffffffffffffffffffffffff16905061085f565b600a600554101561085a57600460009054906101000a900473ffffffffffffffffffffffffffffffffffffffff16905061085f565b600090505b90565b600682908060018154018082558091505090600182039060005260206000200160009091929091909150555060078190806001815401808255809150509060018203906000526020600020016000909192909190915055505050565b60055481565b60608083516040519080825280602002602001820160405280156108f75781602001602082028038833980820191505090505b50905060008090505b845181101561096357848181518110151561091757fe5b90602001906020020151848281518110151561092f57fe5b9060200190602002015103828281518110151561094857fe5b90602001906020020181815250508080600101915050610900565b508091505092915050565b6000806000809050600091505b83518210156109ad57838281518110151561099257fe5b9060200190602002015181019050818060010192505061097b565b8092505050919050565b6000600260009054906101000a900473ffffffffffffffffffffffffffffffffffffffff1673ffffffffffffffffffffffffffffffffffffffff168273ffffffffffffffffffffffffffffffffffffffff161415610a2e576001546003600082825401925050819055506000600181905550610aad565b600460009054906101000a900473ffffffffffffffffffffffffffffffffffffffff1673ffffffffffffffffffffffffffffffffffffffff168273ffffffffffffffffffffffffffffffffffffffff161415610aa3576001546005600082825401925050819055506000600181905550610aac565b60009050610ab2565b5b600190505b919050565b828054828255906000526020600020908101928215610af3579160200282015b82811115610af2578251825591602001919060010190610ad7565b5b509050610b009190610b04565b5090565b610b2691905b80821115610b22576000816000905550600101610b0a565b5090565b9056fea165627a7a723058205aa909b799d66e9e4ae0fd5dbaa3f80bf322aaa739596144b89bdf053709c81c0029",
  "source": "pragma solidity ^0.5.0;\n\ncontract Bet {\n    uint constant betAmount = 10 wei;//2700000000000000; // The bet that each person will make. This is $10 in Gwei\n    \n    \n    address contractAddress; // The address of the user that stores the gwei between the transaction\n    uint public contractBalance; // The balance of the contract\n    address user1; // The address of the first user\n    uint public user1Balance; // The balance of the first user\n    address user2; // The address of the second user\n    uint public user2Balance; // The balance of the second user\n    int[] initialValues1; // The player values of user1's cards\n    int[] initialValues2; // The player values of user2's cards\n    \n    \n    /// Set each variable to a default values\n    constructor() public {\n        contractAddress = 0x0000000000000000000000000000000000000000;\n        user1 = 0x0000000000000000000000000000000000000000;\n        user1Balance =  0;\n        user2 = 0x0000000000000000000000000000000000000000;\n        user2Balance = 0;\n        initialValues1 = [0];\n        initialValues2 = [0];\n    }\n    \n    \n    // Set the addresses and player values for each user and create the contract\n    function setup(address usr1, address usr2, int[] memory values1, int[] memory values2) public {\n        // Store the variables\n        contractAddress = address(this);\n        user1 = usr1;\n        user1Balance = user1.balance;\n        user2 = usr2;\n        user2Balance = user2.balance;\n        initialValues1 = values1;\n        initialValues2 = values2;\n    }\n    \n    \n    // Checks if the balances of each user meets the required betAmount. It returns a null\n    // address if both users meet the requirement.\n    function check() public returns(address) {\n        // If user1 doesn't meet the bet amount, return the first user\n        if (user1Balance < betAmount) return user1;\n        \n        // If user2 doesn't meet the bet amount, return the second user\n        if (user2Balance < betAmount) return user2;\n        \n        // If both users meet the requirement, return a null address\n        return 0x0000000000000000000000000000000000000000;\n    }\n    \n    \n    \n    // Deducts the betAmount from each user and adds the bet amount to the contract user\n    function initialUpdate() public {\n        contractBalance += betAmount*2;\n        user1Balance -= betAmount;\n        user2Balance -= betAmount;\n    }\n    \n    \n    // Adds a new value to each valuearray\n    function addValues(int val1, int val2) public {\n        initialValues1.push(val1);\n        initialValues2.push(val2);\n    }\n    \n    \n    // Gets the sum of a given array\n    function getSum(int[] memory someArray) private returns(int) {\n        uint i;\n        int sum = 0;\n        \n        for(i = 0; i < someArray.length; i++)\n            sum += someArray[i];\n        \n        return sum;\n    }\n    \n    \n    \n    // Gets the difference of each array value given two arrays and returns an \n    // array of the difference in each index in teh array\n    function getDifference(int[] memory initialValues, int[] memory finalValues) private returns(int[] memory) {\n        \n        // Holds the difference of each index in the array\n        int[] memory differences = new int[](initialValues.length);\n        \n        for (uint i = 0; i < initialValues.length; i++) {\n            differences[i] = (finalValues[i] - initialValues[i]);\n        }\n        \n        return differences;\n    }\n    \n    \n    \n    // Transfers the money to a sinlge address\n    function transfer(address winner) private returns(bool) {\n        // If the winner is user1, add the balance to player1\n        if (winner == user1) {\n            user1Balance += contractBalance;\n            contractBalance = 0;\n        }\n        // If the winner is user2, add the balance to player2\n        else if (winner == user2) {\n            user2Balance += contractBalance;\n            contractBalance = 0;\n        }\n        // If the winner is not player1 or player2, return false\n        else {\n            return false;\n        }\n        \n        return true;\n    }\n    \n    \n    // Transfers the money to both addresses\n    function tie() private returns(bool) {\n        user1Balance += contractBalance/2;\n        user2Balance += contractBalance/2;\n        contractBalance = 0;\n        return true;\n    }\n    \n    \n    \n    // Get the new values of each card and return the winner\n    function calculateBestPlayer(int[] memory newValues1, int[] memory newValues2) public returns(bool) {\n        // Get the difference of each players' card value sum\n        int[] memory difference1 = getDifference(initialValues1, newValues1);\n        int[] memory difference2 = getDifference(initialValues2, newValues2);\n        \n        // Get the sum of each difference array\n        int sum1 = getSum(difference1);\n        int sum2 = getSum(difference2);\n        \n        \n        // If sum1 is greater than sum2, player 1 get's the balance\n        if (sum1 > sum2) return transfer(user1);\n        // If sum2 is greater than sum1, player 2 gets the balance\n        if (sum1 < sum2) return transfer(user2);\n        // If the sums are equal, both players split the pot\n        else return false;\n    }\n}",
  "sourcePath": "/Users/alantran/Learning/Hackathons/Dorahacks/Apr 2021/blk-design-system-react-master/src/contracts/Bet.sol",
  "compiler": {
    "name": "solc",
    "version": "0.5.0+commit.1d4f565a.Emscripten.clang"
  },
  "schemaVersion": "3.0.2",
  "updatedAt": "2021-05-16T04:45:41.870Z",
  "devdoc": {
    "methods": {}
  },
  "userdoc": {
    "methods": {
      "constructor": "Set each variable to a default values"
    }
  }
}